:100000000C942E010C944B010C944B010C944B015D
:100010000C944B010C944B010C944B010C944B0130
:100020000C944B010C944B010C944B010C944B0120
:100030000C944B010C944B010C944B010C944B0110
:100040000C944B010C944B010C94891B0C944B01A8
:100050000C944B010C944B010C944B010C944B01F0
:100060000C944B010C944B01756E6B6E6F776E2088
:10007000636F6D6D616E643A20006572726F7220FD
:1000800073796E63696E67206469736B0A007379B4
:100090006E63006572726F72206372656174696E5F
:1000A00067206469726563746F72793A20006D6BC2
:1000B00064697220006572726F7220777269746968
:1000C0006E6720746F2066696C650A006572726FD6
:1000D00072207365656B696E67206F6E20006572B4
:1000E000726F72206F70656E696E6720007772693B
:1000F000746520006572726F722063726561746945
:100100006E672066696C653A2000746F75636820BD
:10011000006572726F722064656C6574696E672029
:1001200066696C653A2000726D20006572726F72AC
:100130002072656164696E67206469736B20696E03
:10014000666F0A006469736B006572726F72206F6C
:1001500070656E696E67200063617420006C7300C7
:100160006469726563746F7279206E6F7420666F54
:10017000756E643A200063642000696E6974006FD4
:1001800070656E696E6720726F6F74206469726546
:1001900063746F7279206661696C65640A006F70C0
:1001A000656E696E672066696C6573797374656DD9
:1001B000206661696C65640A006F70656E696E67C0
:1001C00020706172746974696F6E206661696C6514
:1001D000640A004D4D432F534420696E6974696170
:1001E0006C697A6174696F6E206661696C65640A16
:1001F00000667265653A20202000666F726D61743A
:100200003A200077722E70722E3A2000636F707958
:100210003A202020004D420A0073697A653A202076
:100220002000646174653A20202000736572696162
:100230006C3A203078007265763A202020200070D9
:10024000726F643A202020006F656D3A20202020D4
:10025000006D616E75663A202030780011241FBE53
:10026000CFEFD4E0DEBFCDBF11E0A0E0B1E0EEEA19
:10027000F8E302C005900D92A031B107D9F713E061
:10028000A0E1B1E001C01D92A83DB107E1F70E94D5
:1002900068120C94551C0C940000FC01009711F09E
:1002A000118210820895DF93CF9300D0CDB7DEB7CF
:1002B000DC01009781F16230710568F1ED91FC91EC
:1002C0001197660F771F80E090E016962D913D9173
:1002D0004D915C911997620F731F841F951F0190B8
:1002E000F081E02DAE014F5F5F4F22E030E00995D5
:1002F000882389F029813A812115310571F08FEF2A
:10030000273F380741F0C9014096079720F08FEF4B
:10031000283F380710F020E030E0C9010F900F901F
:10032000CF91DF9108954F925F926F927F928F925B
:100330009F92AF92BF92CF92DF92EF92FF920F9374
:100340001F93DF93CF9300D0CDB7DEB75C0100974A
:1003500009F449C06230710508F445C0DC01169605
:100360006D907D908D909C9019972E010894411C62
:10037000511C660F771F7B0100E010E0E60CF71CB4
:10038000081D191DD501ED91FC910190F081E02D22
:10039000C801B701A20122E030E00995882319F1D4
:1003A000C980DA80C114D10401F1C60140960897D2
:1003B000D0F0B8EFCB16BFEFDB0610F0CC24DD2475
:1003C0001A821982D501ED91FC910480F581E02D0E
:1003D000C801B701A20122E030E00995B601C114BD
:1003E000D10439F602C080E001C081E00F900F9087
:1003F000CF91DF911F910F91FF90EF90DF90CF9001
:10040000BF90AF909F908F907F906F905F904F9034
:1004100008952F923F924F925F926F927F928F92A8
:100420009F92AF92BF92CF92DF92EF92FF920F9383
:100430001F93DF93CF93CDB7DEB72C970FB6F89409
:10044000DEBF0FBECDBF4C011B01CA018114910458
:1004500009F4ABC0D401ED91FC9111972081318159
:100460003C872B87448155815A87498716962D9161
:100470003D914D915C9119972D833E834F83588711
:100480005A96AD90BC905B971A962D913D914D91E7
:100490005C911D9756954795379527953C832B83FF
:1004A0005B961C921E925A973C012901CC24DD24B4
:1004B00054C0B2E0AB16B10428F0EB81FC81AE165B
:1004C000BF0618F042E0A42EB12CC501880F991F79
:1004D0007C0100E010E02D813E814F815885E20EC5
:1004E000F31E041F151FC801B701AE014F5F5F4F18
:1004F00022E030E0AB85BC85FD010995882309F435
:1005000054C089819A81892B11F56114710421F4F9
:10051000F401B38EA28E27C0C114D10429F42FEFA9
:100520003FEF3A83298302C0DA82C982C801B7014A
:10053000AE014F5F5F4F22E030E0A985BA85FD0133
:100540000995882371F10894610871086501089480
:10055000410851080894A11CB11C4114510409F030
:10056000A8CF6728F1F4B2E02B16310400F1C9825C
:10057000DA82220C331CB10180E090E02D813E81B3
:100580004F815885620F731F841F951FAE014F5F07
:100590005F4F22E030E0A985BA85FD0109958823E7
:1005A00031F4C401B6010E949301CC24DD24C601BC
:1005B0002C960FB6F894DEBF0FBECDBFCF91DF9162
:1005C0001F910F91FF90EF90DF90CF90BF90AF9071
:1005D0009F908F907F906F905F904F903F902F9063
:1005E000089580E190E00895FC01009711F01182D8
:1005F000108208952F923F924F925F926F927F9256
:100600008F929F92AF92BF92CF92DF92EF92FF9222
:100610000F931F93DF93CF93CDB7DEB72A970FB613
:10062000F894DEBF0FBECDBF2C017A8369835C8353
:100630004B83009709F409C1672B09F406C1452BC8
:1006400009F403C1DC019D96AD90BD90CD90DC9086
:10065000D09795962D913D914D915C919897EB8116
:10066000FC81CF01A0E0B0E08A0D9B1DAC1DBD1D3B
:10067000281739074A075B0740F4B9016A197B0953
:100680007C836B83672B09F4E3C0D201ED91FC916D
:10069000119720883188D196ED91FC91D297FA87F5
:1006A000E987EF2BF1F593962D913C9194973A873A
:1006B0002987232B39F4A114B104C104D10409F40E
:1006C000C7C0C3C0A114B104C104D10451F1860153
:1006D000750131018824992466277727CB01661993
:1006E0007709880999096D837E838F83988714C061
:1006F000D2018D919C9169857A850E9453019A87D8
:100700008987892B09F4A1C06D817E818F819885AD
:10071000E60EF71E081F191FE614F7040805190551
:1007200038F7089421083108A220B3200894211C2E
:10073000311CCB80DC80D201ED90FC90E114F104FF
:1007400009F1E985FA85E230F105E0F03297BF0161
:1007500080E090E03296FA87E987D70150962D9194
:100760003C91519740E050E00E948A1B9B01AC01F4
:10077000F70182899389A489B589280F391F4A1FF7
:100780005B1F04C020E030E040E050E081010A1926
:100790001B09C016D10608F48601D701ED91FC9122
:1007A000C501A0E0B0E0280F391F4A1F5B1F019070
:1007B000F081E02DCA01B90149815A81980109955A
:1007C000882341F1C01AD10AC801A0E0B0E0F201CB
:1007D00025A536A547A550A9280F391F4A1F5B1F1D
:1007E000D2019D962D933D934D935C93D097C80174
:1007F0008A0D9B1D82159305A0F08D919C916985B2
:100800007A850E9453019A878987892B41F4F201E6
:1008100012AA11AA4B815C814C195D091BC0AA2444
:10082000BB24E985FA85D201D296FC93EE93D19749
:10083000C114D10439F029813A81200F311F3A8344
:10084000298379CF4B815C8105C04FEF5FEF02C0F8
:1008500040E050E0CA012A960FB6F894DEBF0FBE02
:10086000CDBFCF91DF911F910F91FF90EF90DF905F
:10087000CF90BF90AF909F908F907F906F905F9040
:100880004F903F902F900895FC01009711F0118236
:1008900010820895FC01009711F480E0089583A16F
:1008A00094A196A785A710AA17A681E008957F9224
:1008B0008F929F92AF92BF92CF92DF92EF92FF9270
:1008C0000F931F93DF93CF93CDB7DEB72C970FB65F
:1008D000F894DEBF0FBECDBF6C015B01009709F439
:1008E00053C06115710509F44FC0DB019796ED9077
:1008F000FD900D911C919A97E114F10401051105E9
:1009000009F442C04E010894811C911C75EE772EAB
:10091000D601ED91FC910190F081E02DC801B70165
:10092000A4012CE030E00995882371F17982D60189
:10093000ED91FC910480F581E02DC801B701A4017F
:100940002CE030E009958823F9F08C858F3049F44C
:1009500080E290E0A0E0B0E0E80EF91E0A1F1B1F45
:10096000D7CFD50191966D917C91929761157105C4
:1009700039F0C6010E94930120E030E0882311F095
:1009800021E030E0822F01C080E02C960FB6F89471
:10099000DEBF0FBECDBFCF91DF911F910F91FF90B2
:1009A000EF90DF90CF90BF90AF909F908F907F900F
:1009B0000895FC01009729F420E030E040E050E089
:1009C00014C06285738584859585969587957795FE
:1009D000679562507040804090402089318940E0A6
:1009E00050E00E948A1B9B01AC01B901CA01089525
:1009F0002F923F924F925F926F927F928F929F922F
:100A0000AF92BF92CF92DF92EF92FF920F931F931C
:100A1000DF93CF93CDB7DEB7A6970FB6F894DEBFBE
:100A20000FBECDBF9EA38DA3892B09F45DC01A8292
:100A3000198280E290E09C838B83ADA1BEA11696C3
:100A40004D905D906D907C9019971A968D909D9029
:100A5000AD90BC901D9734C0BEEF8B16BFEF9B06C8
:100A6000B0E0AB06B0E0BB0628F01EEF212E1FEF72
:100A7000312E01C01401ADA1BEA1ED91FC91028007
:100A8000F381E02DC301B201AE014B5F5F4F20E265
:100A900030E08101B3E9EB2EB5E0FB2E6E01089446
:100AA000C11CD11C09958823F9F0C101A0E0B0E078
:100AB000480E591E6A1E7B1E881A990AAA0ABB0A8A
:100AC00081149104A104B10439F6EDA1FEA160895D
:100AD000718980E090E029813A8140E050E00E94F5
:100AE0008A1B9B01AC0104C020E030E040E050E0F4
:100AF000B901CA01A6960FB6F894DEBF0FBECDBFEE
:100B0000CF91DF911F910F91FF90EF90DF90CF90E9
:100B1000BF90AF909F908F907F906F905F904F901D
:100B20003F902F900895DC01F9014281538120E02C
:100B300030E00DC08D919C911197892B29F4808113
:100B400091810196918380832E5F3F4F12962417E7
:100B5000350780F381E00895CF92DF92EF92FF9204
:100B60000F931F93DF93CF93CDB7DEB760970FB688
:100B7000F894DEBF0FBECDBF8C016230710510F45A
:100B800080E035C0009729F440E050E060E070E07C
:100B900016C06250704080E090E0F80120893189F1
:100BA00040E050E00E948A1BAB01BC01F801828941
:100BB0009389A489B589480F591F6A1F7B1FDE01DD
:100BC000119680E1FD0111928A95E9F7F801808183
:100BD000918120893189FC01C680D780CB01BA017F
:100BE000AD0101EF12E0EE24FF24F60109956096B5
:100BF0000FB6F894DEBF0FBECDBFCF91DF911F912E
:100C00000F91FF90EF90DF90CF9008952F923F9239
:100C10004F925F926F927F928F929F92AF92BF920C
:100C2000CF92DF92EF92FF920F931F93DF93CF93B8
:100C3000CDB7DEB7AA970FB6F894DEBF0FBECDBF13
:100C40004C01DB01009709F4B5C06115710509F489
:100C5000B1C0FC0160807180F30120883188FC0103
:100C6000A5A4B6A427A530A92215330508F07EC097
:100C7000AE014F5F5F4F86E0FA0111928A95E9F766
:100C80008BE2FB0111928A95E9F7A114B10409F0F6
:100C900074C0F3012288338886899789281A390A13
:100CA0006CC0720100E010E0A114B10441F4D30162
:100CB00056966D917D918D919C91599724C06114A8
:100CC0007104D9F0B2E0AB16B104B8F0F301208999
:100CD000318940E050E06FA178A589A59AA50E94CE
:100CE0008A1B9B01AC01F30182899389A489B58990
:100CF000280F391F4A1F5B1F04C020E030E040E08E
:100D000050E0CA01B9016E0D7F1D801F911F1C822A
:100D10001B82D301ED91FC91810104191509028018
:100D2000F381E02DAE01495F5F4F20E230E0A4EF98
:100D3000EA2EA6E0FA2E6E010894C11CD11C09957A
:100D40008823C1F18B819C81480E591E42145304A3
:100D500030F1C301B5010E9453015C0120E030E095
:100D6000009769F48E818823F1F4F40183A194A1A2
:100D700096A785A710AA17A61DC0BA83A983290123
:100D80008EEF9FEFA80EB91EC501A0E0B0E08FA3C3
:100D900098A7A9A7BAA7A2E0B0E0AA0EBB1E8E81B1
:100DA000882309F47ECFF401B6A6A5A650AA47A6CB
:100DB0008E8101C080E0AA960FB6F894DEBF0FBE08
:100DC000CDBFCF91DF911F910F91FF90EF90DF90FA
:100DD000CF90BF90AF909F908F907F906F905F90DB
:100DE0004F903F902F900895CF92DF92EF92FF9215
:100DF0000F931F93DF93CF93CDB7DEB72D970FB629
:100E0000F894DEBF0FBECDBFDC016A017B01890112
:100E1000F9014081518182819381809693838283FD
:100E20009C91953E11F0992319F4F8011482EAC0BF
:100E30001B968C911B978F3009F053C0F901948158
:100E4000992329F01D968C911D97981779F08BE2C4
:100E5000FA0111928A95E9F71D968C911D97F80178
:100E60008483FA01C7A2D0A6E1A6F2A68C9190E0F5
:100E70008F73907001972DE030E0829FB001839FC7
:100E8000700D929F700D11249E012F5F3F4F00E067
:100E900011E08DE0F80101908F01F90101929F01AD
:100EA0008150C1F7460F571F20E030E08E010F5FE1
:100EB0001F4F11C0F801E20FF31F8081FD01E80F01
:100EC000F11D8081FA018193AF012F5F3F4F2D30DB
:100ED000310509F497C0C901860F971F4F9750F34A
:100EE00091C0FA018081882399F0F9013481FD01D4
:100EF00021E0892F8695979599279795982B818141
:100F0000980F2F5F31962B30A1F7391709F460C085
:100F10008BE2FA0111928A95E9F7FA01C7A2D0A6ED
:100F2000E1A6F2A67D019A016D0160E0F6019081D3
:100F30009032C1F0F90190831C968C911C9783FF2D
:100F400009C0F6018081813428F08B3518F4905E59
:100F5000F90190836F5F0894C11CD11C2F5F3F4F34
:100F6000683021F7FA018081853011F485EE8083A5
:100F700018968C911897803239F1FA01E60FF11D1D
:100F80008EE28083262F2F5F362F3C5FF7019085FE
:100F90009032C9F0BA01620F711DFB0190831C965B
:100FA0008C911C9784FF09C0F7018085813428F05B
:100FB0008B3518F4905EFB0190832F5F0894E11C41
:100FC000F11C231719F7622FFA01E60FF11D1082A9
:100FD0001B968C911B97FA0180A35A968D919C9138
:100FE0005B9792A381A35C968D919D910D90BC918E
:100FF000A02D83A394A3A5A3B6A381E0F8018583C4
:1010000080E001C081E02D960FB6F894DEBF0FBEE0
:10101000CDBFCF91DF911F910F91FF90EF90DF90A7
:10102000CF9008952F923F924F925F926F927F924E
:101030008F929F92AF92BF92CF92DF92EF92FF92E8
:101040000F931F93DF93CF93CDB7DEB7A8970FB65B
:10105000F894DEBF0FBECDBF98A78FA3009709F409
:1010600036C1DC0114968D919C911597892B09F45A
:101070002EC116968D919C911797892B09F427C143
:101080006DC1E981FA81FBA3EAA32C813D81FB813B
:10109000FCA34E818F8198859EA38DA3E985FA8557
:1010A0006C857D856E887F88888C998C611471042D
:1010B0008104910431F4309709F405C13F0188247B
:1010C00099246115710509F4FEC0C901A0E0B0E0E2
:1010D0008E8F9F8FA8A3B9A380E090E0242F30E0EB
:1010E00040E050E00E948A1B6A8F7B8F8C8F9D8F1F
:1010F000840173012E8D3F8D48A159A1E21AF30A94
:10110000040B150BE61AF70A080B190B8AA19BA111
:1011100001972DA13EA145E0220F331F4A95E1F72B
:10112000820F931F6AA17BA10E94A91B80E090E01F
:10113000E61AF70A080B190B8CA1282F30E040E0C3
:1011400050E0C801B7010E94D01B79018A0195EFD8
:10115000E9169FE0F90690E0090790E0190708F406
:10116000B2C0A5EFEA16AFEFFA06A0E00A07A0E0CA
:101170001A0728F486E0EFA1F8A5808705C08BE068
:10118000AFA1B8A518968C9388E1E2E1F1E0DF0108
:101190001D928A95E9F7EAA1FBA15F01CC24DD2429
:1011A000C401B301A60195010E948A1B609312013C
:1011B000709313018093140190931501C601B5013A
:1011C0002E8D3F8D48A159A10E948A1B260E371EE5
:1011D000481E591E209216013092170140921801A4
:1011E00050921901AFA1B8A518968C91863029F0BC
:1011F00064E070E080E090E004C062E070E080E0D5
:1012000090E022E030E040E050E0E20EF31E041FE8
:10121000151FA80197010E948A1B60931A01709301
:101220001B0180931C0190931D014AA15BA1509367
:101230001F0140931E015CA1852F90E0DC01EAA113
:10124000FBA1AE9FC001AF9F900DBE9F900D1124DA
:1012500090932101809320016A8D7B8D8C8D9D8DD3
:10126000A60195010E948A1B209116013091170159
:101270004091180150911901620F731F841F951F2F
:101280006093260170932701809328019093290190
:10129000ADA1BEA19D0140E050E015E0220F331F3B
:1012A000441F551F1A95D1F7620F731F841F951F96
:1012B0006093220170932301809324019093250170
:1012C00020E131E006C0109211011092100120E0DF
:1012D00030E0C901A8960FB6F894DEBF0FBECDBFAF
:1012E000CF91DF911F910F91FF90EF90DF90CF9002
:1012F000BF90AF909F908F907F906F905F904F9036
:101300003F902F900895E0E1F1E08CE1DF011D9224
:101310008A95E9F7EFA1F8A5F0931101E093100188
:101320002184328443845484B9E0220C331C441C4D
:10133000551CBA95D1F7C201B101655F7F4F8F4F40
:101340009F4F0190F081E02DAE014F5F5F4F29E18B
:1013500030E00995882309F4B6CF93CE809110012F
:1013600090911101892B09F0B2CFCDCF2F923F92EE
:101370004F925F926F927F928F929F92AF92BF92A5
:10138000CF92DF92EF92FF920F931F93DF93CF9351
:1013900000D00F92CDB7DEB71C019B01009709F476
:1013A000D2C04115510509F4CEC0FA0101900020C8
:1013B000E9F7E41BF50BCF010B966DE070E00E949E
:1013C000A91B862F8F5F8B83D90193964D905C90DC
:1013D00094974114510451F0AA24BB246501EE24D2
:1013E000FF2487016624772443010BC0F101E688BE
:1013F000F788008D118D62887388848895885701DD
:1014000068011A82E614F7040805190509F06EC090
:101410004114510409F497C0E114F10401051105C8
:1014200089F1C101B2010E945301009751F5C10138
:10143000B20141E050E00E9409028C01009709F4DA
:1014400082C002501040B80180E090E00E5F1F4F54
:10145000D10150962D913C91519740E050E00E946F
:101460008A1B5B016C01F10182899389A489B5898A
:10147000A80EB91ECA1EDB1EC101B8010E94AC0530
:1014800065C02C01F2E04F16510420F4EE24FF2435
:1014900087011DC02EEF3FEF420E531EB20180E0C8
:1014A00090E0A2E0B0E04A0E5B1EF1012089318994
:1014B00040E050E00E948A1B7B018C01F10182898F
:1014C0009389A489B589E80EF91E0A1F1B1FD10153
:1014D00050968D919C9151973C01882499246E0CD3
:1014E0007F1C801E911E570168011A82D101ED9167
:1014F000FC910190F081E02DC801B701AE014F5F72
:101500005F4F21E030E009958823E9F08981853E2D
:1015100011F0882379F4BA81BF5FBA83EB81BE17DB
:10152000A8F480E290E0A0E0B0E0E80EF91E0A1F07
:101530001B1F68CF80E290E0A0E0B0E0E80EF91E4B
:101540000A1F1B1F5CCFAA24BB246501B501C6017D
:101550000F900F900F90CF91DF911F910F91FF90FF
:10156000EF90DF90CF90BF90AF909F908F907F9043
:101570006F905F904F903F902F9008952F923F92E1
:101580004F925F926F927F928F929F92AF92BF9293
:10159000CF92DF92EF92FF920F931F93DF93CF933F
:1015A000CDB7DEB7A0970FB6F894DEBF0FBECDBFA4
:1015B000FC018B01009709F426C16115710509F43E
:1015C00022C10190F081E02D24803580DB019796C7
:1015D000AD90BD90CD90DC909A97E62E912EFB01B8
:1015E00001900020E9F73197FE2EF61A8F2D90E03A
:1015F0000C966DE070E00E94BD1B762ECE01019628
:1016000060E270E04BE050E00E94121CC8016EE204
:1016100070E00E944A1CFC010097E1F09C012F5FE2
:101620003F4F81818823B1F0D9010D900020E9F767
:101630001197A21BB30B8A2F8095F80EBE01675F2E
:101640007F4F4A2FA43008F043E0CB01B90150E0AE
:101650000E94091CCE010196B8E0BF1588F06E2DDE
:10166000792D4F2D50E00E94091CF80180818E32A7
:1016700031F581818E3209F482818823F9F01FC00F
:10168000DC018E2D992D9C01F90188E001900D92CD
:101690008150E1F7D80191968C91982F92959F7087
:1016A000803A10F4905D01C09F598F708A3010F419
:1016B000805D01C08F599F83888701C0772489810D
:1016C000853E11F485E08983FCE08F2E912C8C0EF1
:1016D0009D1E85E1F40111928A95E9F7D801909653
:1016E0008C9190978C8791968D919C9192979C8FDD
:1016F0008B8F93968D919D910D90BC91A02D8D8F88
:101700009E8FAF8FB8A3672D70E0E5E0660F771F5F
:10171000EA95E1F780E090E06A0D7B1D8C1D9D1D30
:10172000AE014F5F5F4F20E230E0F1010995882361
:1017300009F469C0E980FE01329694018E2D8695E8
:10174000E794EE24E794E82A8191E80EE217F30784
:10175000A9F7F72C4E010894811C911C6DE0462ED0
:10176000512C5FE0652E4AC0C4016FEF70E040E28B
:1017700050E00E94121C8F2D90E00197849DD001B3
:10178000859DB00D949DB00D1124A00FB11F91E067
:10179000F401E90FF11D8C918083892F8F5FF40193
:1017A000E80FF11D10829E5F9B3019F09A3121F4F1
:1017B00002C09EE001C09CE18C91882321F09F3102
:1017C00010F41196E5CFF982F71419F48F2D806487
:1017D00089836C86EE861D861B8E1C8EC601B50124
:1017E000A40120E230E0F101099580E290E0A0E060
:1017F000B0E0A80EB91ECA1EDB1EFA94FF2009F045
:10180000B3CF81E001C080E0A0960FB6F894DEBFB0
:101810000FBECDBFCF91DF911F910F91FF90EF9041
:10182000DF90CF90BF90AF909F908F907F906F9000
:101830005F904F903F902F9008957F928F929F924C
:10184000AF92BF92CF92DF92EF92FF920F931F93CE
:10185000CF93DF936C015B01EA01009709F49DC00F
:101860006115710509F499C0FB018081882309F491
:1018700094C04115510581F490C0C501682D772DA4
:101880000E94241C009751F4F60183A194A196A70D
:1018900085A710AA17A681C0842E7D2EC601BE0181
:1018A0000E940606882349F7F601E080F180C7010F
:1018B00060E070E041E050E00E9409028C01009776
:1018C00009F46BC0C701B8010E94AC058BE2FE01B0
:1018D00011928A95E9F780E188A302501040B8017F
:1018E00080E090E00E5F1F4FF7012089318940E0D2
:1018F00050E00E948A1BF701228933894489558967
:10190000260F371F481F591F2FA338A749A75AA7CB
:10191000AEE29A2E98821AA309A3C701BE010E94C3
:10192000BE0A8823B1F18FA198A5A9A5BAA5809672
:10193000A11DB11D8FA398A7A9A7BAA79982F601E7
:1019400083A194A19AA389A3C701BE010E94BE0AE4
:101950008823F9F0882D972DB5014FE150E00E94C2
:101960003B1C1AA309A3C701B601AE010E94B60928
:101970006FA378A789A79AA76115710581059105BD
:1019800041F0C701BE010E94BE0A882311F081E028
:1019900005C0C701B8010E94930180E0DF91CF919B
:1019A0001F910F91FF90EF90DF90CF90BF90AF907D
:1019B0009F908F907F900895AF92BF92CF92DF92C9
:1019C000EF92FF920F931F93CF93DF938C017B01D4
:1019D000EA01009709F448C06115710509F444C093
:1019E000FB018081882309F43FC041155105E1F1D5
:1019F000B42EAD2EC801BE010E940606882379F0E0
:101A0000C7016B2D7A2D0E94241C009799F7F801CD
:101A100083A194A196A785A710AA17A625C0F801AF
:101A2000C080D1808BE2FE0111928A95E9F78B2D5F
:101A30009A2DB7014FE150E00E943B1CC601B8014E
:101A4000AE010E94B6096FA378A789A79AA761156E
:101A500071058105910541F0C601BE010E94BE0AD3
:101A6000882319F081E001C080E0DF91CF911F91C0
:101A70000F91FF90EF90DF90CF90BF90AF900895BF
:101A80004F925F926F927F928F929F92AF92BF928E
:101A9000CF92DF92EF92FF920F931F93DF93CF933A
:101AA000CDB7DEB72A970FB6F894DEBF0FBECDBF15
:101AB0002C015A016B01009709F4E5C0DC019396F3
:101AC0000D911C919497ED91FC912089318901151C
:101AD000110599F0AB82BC82CD82DE823901882467
:101AE000992422273327A9012619370948095909BA
:101AF0002F83388749875A8720C0411551056105D2
:101B0000710509F4A9C0E6CFD2018D919C91B8016D
:101B10000E9453010097D9F0EB80FC800D811E815B
:101B20002F81388549855A85E20EF31E041F151F43
:101B3000EB82FC820D831E838C018B819C81AD81A5
:101B4000BE81681679068A069B06F0F2B4C0780159
:101B50006B817C818D819E81660D771D881D991D0D
:101B60006150704080409040A40193010E94D01BBE
:101B7000D2018D919C91B801A9010E9409020097A0
:101B800009F481C0012B21F4F20194A383A37C0109
:101B9000D2019596AD92BD92CD92DC929897A11408
:101BA000B104C104D10421F494961C921E9293971F
:101BB000F20181919191BF010E94BE0A882309F42C
:101BC00062C0A114B104C104D10429F4F2018081DE
:101BD0009181B7013FC00B811C812D813E81601630
:101BE000710682069306C0F1D2010D911C91011578
:101BF000110591F1B2E0EB16F10470F1C801B701E3
:101C00000E9453014C018FEF9FEF9A838983D80183
:101C1000ED91FC911197EE0CFF1CB70180E090E074
:101C200016962D913D914D915C911997620F731FFE
:101C3000841F951F0480F581E02DAE014F5F5F4F3B
:101C400022E030E00995882339F08114910421F0D5
:101C5000C801B4010E949301F20185A596A5A7A52C
:101C6000B0A9A816B906CA06DB0658F4D2019D969B
:101C7000AD92BD92CD92DC92D097D2961C921E92DC
:101C8000D19781E001C080E02A960FB6F894DEBFBC
:101C90000FBECDBFCF91DF911F910F91FF90EF90BD
:101CA000DF90CF90BF90AF909F908F907F906F907C
:101CB0005F904F90089578010115110509F448CF00
:101CC00067CFCF92DF92EF92FF920F931F93CF9344
:101CD000DF93EC016B01009709F445C061157105B4
:101CE00009F441C08DA59EA5AFA5B8A9413059F012
:101CF000413018F04230B9F50CC0FB01E080F180B2
:101D00000281138113C0FB01E080F1800281138105
:101D100009C0FB01E080F180028113818DA19EA1A9
:101D2000AFA1B8A5E80EF91E0A1F1B1F8DA19EA129
:101D3000AFA1B8A58E159F05A007B10738F4CE0155
:101D4000B801A7010E94400D882369F0EDA6FEA608
:101D50000FA718AB1AAA19AAF601E082F182028332
:101D6000138381E001C080E0DF91CF911F910F913B
:101D7000FF90EF90DF90CF9008952F923F924F9277
:101D80005F926F927F928F929F92AF92BF92CF920B
:101D9000DF92EF92FF920F931F93DF93CF9300D0C8
:101DA00000D000D0CDB7DEB79E838D837A83698360
:101DB0005C834B83009709F441C1672B09F43EC152
:101DC000452B09F43BC1DC019D968D909D90AD9013
:101DD000BC90D097FC0185A196A1A7A1B0A58815BC
:101DE0009905AA05BB0508F429C10190F081E02DF1
:101DF00020883188AD81BE81D1960D911C91D297FA
:101E00000115110509F055C093960D911C919497F9
:101E100001151105A9F481149104A104B10409F07C
:101E20000DC1CF0160E070E041E050E00E94090286
:101E30008C01ED81FE8194A383A3009709F4FEC079
:101E4000AD81BE819D96CD90DD90ED90FC90D097B8
:101E5000C114D104E104F10421F52BC0C418D50844
:101E6000E608F708ED81FE8180819181B8010E942A
:101E70005301009711F08C0117C0C114D104E10483
:101E8000F10409F0DBC0AD81BE818D919C91B80158
:101E900041E050E00E940902009709F4CFC08C0194
:101EA00003C0210166247724C414D504E604F70492
:101EB000A8F6089421083108822093200894211C58
:101EC000311CAB80BC80ED81FE81C080D180C1140B
:101ED000D104F9F002301105E0F002501040B801D1
:101EE00080E090E00E5F1F4FD60150962D913C91FF
:101EF000519740E050E00E948A1B9B01AC01F60123
:101F000082899389A489B589280F391F4A1F5B1FCD
:101F100004C020E030E040E050E07101E818F9082A
:101F2000AE14BF0408F47501D601ED91FC91C40113
:101F3000A0E0B0E0280F391F4A1F5B1F0480F58125
:101F4000E02DCA01B90149815A8197010995882379
:101F500009F448C0AE18BF08C701A0E0B0E0ED81A9
:101F6000FE8125A536A547A550A9280F391F4A1F70
:101F70005B1F25A736A747A750ABC701880D991D42
:101F80008215930508F180819181B8010E94530167
:101F9000009711F08C0116C0A114B10459F0ED8125
:101FA000FE8180819181B80141E050E00E940902E8
:101FB000009739F4AD81BE81D2961C921E92D197C2
:101FC00011C08C0188249924ED81FE8112AB01ABF4
:101FD000A114B10439F089819A818E0D9F1D9A83D5
:101FE000898371CFED81FE8185A596A5A7A5B0A9AE
:101FF000E5A0F6A007A110A5E816F9060A071B0739
:10200000C0F485A396A3A7A3B0A781919191BF0126
:102010000E94BE0A882369F4AD81BE819D96AD9071
:10202000BC909E97AE18BF08FD01E5A6F6A607A7CF
:1020300010AB4B815C814A195B0902C04FEF5FEF27
:10204000CA0126960FB6F894DEBF0FBECDBFCF9162
:10205000DF911F910F91FF90EF90DF90CF90BF9095
:10206000AF909F908F907F906F905F904F903F9038
:102070002F900895CF93DF93AC01DB01009789F196
:102080006115710571F190968C91909784FF29C02C
:1020900080915F0190916001892B19F4EFE5F1E0E7
:1020A00008C08091900190919101892BD1F4E0E9D1
:1020B000F1E09F012E5F3F4FBD018BE2EB010990E4
:1020C000BE01E90109929E018150C1F7518340830D
:1020D00091968D919C91929796A785A710AA17A685
:1020E00002C0E0E0F0E0CF01DF91CF910895CF93FF
:1020F000DF939C01FB01009731F06115710519F028
:1021000080A184FF23C020E030E0C901DF91CF919E
:102110000895CEE2D1E0DF018BE20D90099281506B
:10212000E1F730932D0120932C0110925901109268
:102130005A0110925B0110925C0181A192A19093CF
:102140005E0180935D012CE231E0DFCF80912C01B4
:1021500090912D01892BB9F6DCCF6F927F928F92EF
:102160009F92AF92BF92CF92DF92EF92FF920F9326
:102170001F93CF93DF934C01EB017A01009709F491
:1021800067C06115710509F463C08881882309F46B
:102190005FC04115510509F45BC08F3209F42196E7
:1021A0008BE2F70111928A95E9F780E1F70180A3AC
:1021B000370101C0E5018881882309F44BC0C401BF
:1021C000B7010E943A106C01009709F441C0CE019A
:1021D0006FE270E00E94191C009739F0482F4C1BE9
:1021E0005C010894A11CB11C2AC0FE0101900020D2
:1021F000E9F731974E2F4C1B5E01A40EB11C1FC096
:10220000F30101900020E9F73197E619F709E0178B
:10221000F107B9F4CE01B301A8010E942D1C00976B
:1022200081F4F601118210820C0F1D1FF8018081CC
:10223000882381F0F70180A184FDBCCF09C0042F61
:1022400010E0C601B7010E9406068823C9F612C035
:1022500080E001C081E0DF91CF911F910F91FF904D
:10226000EF90DF90CF90BF90AF909F908F907F9036
:102270006F900895F601118210829DCF0F931F93E6
:10228000DF93CF93CDB7DEB769970FB6F894DEBF73
:102290000FBECDBF8C01009709F4A3C0CE010196FB
:1022A0000E942316882309F49CC081E592E00E94D5
:1022B000661B89810E94791A8AE00E946A1A88E462
:1022C00092E00E94661BCE0102960E94591B8AE092
:1022D0000E946A1A8FE392E00E94661BCE01059667
:1022E0000E94591B8AE00E946A1A86E392E00E94CB
:1022F000661B8B850E94791A8AE00E946A1A8BE21B
:1023000092E00E94661B6C857D858E859F850E946C
:102310009F1A8AE00E946A1A82E292E00E94661B7B
:10232000898990E00E94B21A8FE20E946A1A888915
:1023300090E00E94B21A8AE00E946A1A89E192E053
:102340000E94661B6A897B898C899D8924E1969508
:102350008795779567952A95D1F70E94F01A85E1C0
:1023600092E00E94661B8CE092E00E94661B8E89C0
:1023700090E00E94B21A8AE00E946A1A83E092E01A
:102380000E94661B888D90E00E94B21A8FE20E9424
:102390006A1A8F8990E00E94B21A8AE00E946A1A33
:1023A0008AEF91E00E94661B898D90E00E94B21A2C
:1023B0008AE00E946A1A81EF91E00E94661BC801C0
:1023C0000E94F8040E94F01A8FE20E946A1AC80163
:1023D0000E94D9040E94F01A8AE00E946A1A81E0E1
:1023E00001C080E069960FB6F894DEBF0FBECDBF86
:1023F000CF91DF911F910F910895EF92FF920F936C
:102400001F93CF93DF93EB018A0179010BC0C701C2
:10241000B8010E94241C009729F4CE010E944A04AE
:1024200081E006C0CE01B7010E940606882379F735
:10243000DF91CF911F910F91FF90EF900895CF9270
:10244000DF92EF92FF920F931F93CF93DF93EC01F4
:10245000162F60E070E0412F50E00E94121C00E057
:10246000C12EDD240894C108D10823C00E94741B2A
:10247000182F883011F08F3789F40023D1F00150E4
:10248000FE01E00FF11D108288E00E946A1A80E2CE
:102490000E946A1A88E00E946A1A0BC00E946A1A97
:1024A000FE01EE0DFF1D1A3011F4108207C01083DB
:1024B0000F5FE02EFF24EC14FD04C4F2802FDF91A7
:1024C000CF911F910F91FF90EF90DF90CF900895E3
:1024D0002F923F924F925F926F927F928F929F9234
:1024E000AF92BF92CF92DF92EF92FF920F931F9322
:1024F000DF93CF93CDB7DEB7CC57D0400FB6F8946B
:10250000DEBF0FBECDBF83B7817F83BF0E945E1A3F
:102510004DE0242E312C2C0E3D1E30E5432E512C47
:102520004C0E5D1E0E946619882319F483ED91E01C
:1025300042C088E398E166EF78E144E457E123E0A4
:102540003AE100E00E94D714ED969FAF8EAFED9771
:10255000892BA1F488E398E166EF78E144E457E140
:1025600023E03AE10FEF0E94D714ED969FAF8EAFB4
:10257000ED97892B19F489EB91E01DC0ED968EAD96
:102580009FADED970E9412084C01009719F48EE957
:1025900091E011C08E010B5D1F4F6DE071E0A8014D
:1025A0000E94AD10C401B8010E943A103C0100978E
:1025B00029F48FE791E00E94661BB4CFC4010E940A
:1025C0003E118EE30E946A1A80E20E946A1AC101DB
:1025D00068E10E941F128823A1F3C1016AE771E03C
:1025E0000E94F21B892B09F4CDC1C10166E771E09D
:1025F00043E050E00E94FB1B892BE1F4888988238B
:1026000001F3C401B301AE01405F5F4F92010E942C
:10261000FD11882361F0C401B2010E943A108C01BF
:10262000009729F0C3010E9444043801CACF80E614
:1026300091E0C0C0C1016DE571E00E94F21B892BE1
:1026400059F131C0D2010D900020E9F78D01015000
:10265000104004191509C2010E94591BF20180A102
:1026600084FD02C080E201C08FE214E2101B0E94D0
:102670006A1A04C080E20E946A1A11501123D1F72D
:10268000D20193966D917D918D919C9196970E9428
:10269000F01A8AE00E946A1AC301B2010E9406067B
:1026A000882381F68ECFC10168E571E044E050E0F7
:1026B0000E94FB1B892B09F04DC08989882309F4EE
:1026C00080CFC401B301AE014F5E5F4F92010E9403
:1026D000FD11882359F0C401B2010E9477105C01FA
:1026E000009721F0CC24DD24760127C089E491E015
:1026F0000E94661BCE0141963FC1C701B6010E94F0
:102700009F1A8AE30E946A1A8E010B5F1F4F80E2B4
:102710000E946A1AF80181918F010E94791A0215AC
:102720001305A9F78AE00E946A1A88E090E0A0E009
:10273000B0E0C80ED91EEA1EFB1EC501BE016B5FCC
:102740007F4F48E050E00E94FA0218161906ACF2DA
:10275000C501DBC0C10164E471E00E94F21B892B5A
:1027600049F4C4010E943E11882309F02ACF8BE26C
:1027700091E0FAC0C10167E271E043E050E00E94DD
:10278000FB1B892BE1F48889882309F41ACFC40143
:10279000B301AE01405F5F4F92010E94FD1188239B
:1027A00039F0C401B2010E945704882309F009CF0F
:1027B00081E191E00E94661BCE014096DDC0C1011F
:1027C0006AE071E046E050E00E94FB1B892B89F42F
:1027D0008B89882309F4F5CEC301BE016D5E7F4F5E
:1027E000A2010E94DC0C882309F0EBCE84EF90E07C
:1027F000A8C0C1016DEE70E046E050E00E94FB1BF6
:10280000892B09F085C08B89882309F4DACE8E01E3
:102810000D5E1F4F02C00F5F1F4FD8018C91803299
:1028200019F08823C1F7CDCEF8011082C401B3019D
:10283000AE014D5E5F4F92010E94FD11882361F051
:10284000C401B2010E9477107C01009729F020E0BA
:1028500030E040E050E01AC08EED90E072C0CA0156
:10286000B9012AE030E040E050E00E948A1B9B0161
:10287000AC018D2D992787FD9095C097AA2797FDCC
:10288000A095BA2F280F391F4A1F5B1FD801119638
:10289000DC900F5F1F4F8D2D80538A3000F329830A
:1028A0003A834B835C83C701BE016F5F7F4F40E07B
:1028B0000E94610E882361F48CEC90E00E94661BFC
:1028C000CE0143960E94591B8AE00E946A1A1CC0DE
:1028D0008CE30E946A1A80E20E946A1AC10168E1D0
:1028E0000E941F12182F882379F0C701B101412FD0
:1028F00050E00E94BD0E212F30E08217930741F374
:1029000085EB90E00E94661BC7010E94F40259CE3D
:10291000C1016EEA70E046E050E00E94FB1B892B8B
:10292000A9F48B89882309F44CCEC301BE016D5EE6
:102930007F4FA2010E941D0C882309F042CE83E93B
:1029400090E00E94661BCE01439616C0C1016EE85E
:1029500070E00E94F21B892B51F40E941E188823FC
:1029600009F02FCE8AE790E00E94661B2ACE88E607
:1029700090E00E94661BC1010E94591B8AE00E94E0
:102980006A1A1FCEC3010E944404C4010E944D0173
:10299000ED968EAD9FADED970E94CF14C3CDFC0197
:1029A000009711F480E00895108681E008958F92D9
:1029B0009F92AF92BF92CF92DF92EF92FF920F93CE
:1029C000DF93CF93CDB7DEB760970FB6F894DEBF35
:1029D0000FBECDBF7C016B015A014901009709F47C
:1029E00093C06115710509F48FC004300CF08CC0E0
:1029F00007FD1DC0602F772767FD7095E4E0660F27
:102A0000771FEA95E1F762547E4F882777FD80951E
:102A1000982FAE014F5F5F4F20E130E0F70109953D
:102A2000882309F471C08D81882309F46DC08091D9
:102A3000C901882309F068C07CC08D818093C901D9
:102A40002A8530E040E050E0542F432F322F2227D8
:102A50008B8590E0A0E0B0E0DC0199278827282B47
:102A6000392B4A2B5B2B898590E0A0E0B0E0282B26
:102A7000392B4A2B5B2B8C8590E0A0E0B0E0B82F7F
:102A8000AA2799278827282B392B4A2B5B2B2093A1
:102A9000CA013093CB014093CC015093CD012E85D8
:102AA00030E040E050E0542F432F322F22278F8513
:102AB00090E0A0E0B0E0DC0199278827282B392B93
:102AC0004A2B5B2B8D8590E0A0E0B0E0282B392BC2
:102AD0004A2B5B2B888990E0A0E0B0E0B82FAA27B2
:102AE00099278827282B392B4A2B5B2B2093CE0143
:102AF0003093CF014093D0015093D10103C08FEFA9
:102B00008093C9019F0102C020E030E0C9016096B6
:102B10000FB6F894DEBF0FBECDBFCF91DF910F91FE
:102B2000FF90EF90DF90CF90BF90AF909F908F90ED
:102B30000895E1ECF1E081E1DF011D928A95E9F76A
:102B4000F092C201E092C101D092C401C092C301CF
:102B5000B092C601A092C5019092C8018092C701AF
:102B600007FF6BCFCCCF86B182958F708095817037
:102B7000089586B1829586958770809581700895B5
:102B8000282F8FEF8EBD0DB407FEFDCF8DB58F774B
:102B90008DBD8EB5822F80648EBD0DB407FEFDCF36
:102BA0008DB58F778DBD872F9927AA27BB278EBD1F
:102BB0000DB407FEFDCF8DB58F778DBDCB01AA2754
:102BC000BB278EBD0DB407FEFDCF8DB58F778DBDB4
:102BD000BB27A72F962F852F8EBD0DB407FEFDCFE7
:102BE0008DB58F778DBD4EBD0DB407FEFDCF8DB574
:102BF0008F778DBD222319F0283069F406C085E94E
:102C00008EBD0DB407FEFDCF0BC087E88EBD0DB4A1
:102C100007FEFDCF05C08FEF8EBD0DB407FEFDCFC3
:102C20008DB58F778DBD90E02FEF2EBD0DB407FED3
:102C3000FDCF8DB58F778DBD8EB58F3F19F49F5F1A
:102C40009A3099F70895CF92DF92EF92FF920F9307
:102C50001F93CF93DF93EC01009709F40BC13499D4
:102C600009C189E1FE0111928A95E9F72A988AE063
:102C700040E050E060E070E00E94C015882309F059
:102C800069C09FEF9EBD0DB407FEFDCF8DB58F7758
:102C90008DBD8EB58E3FB1F71C2FCE01FC0160E6D5
:102CA00070E00FEF9E2F911B0EBD0DB407FEFDCF00
:102CB0008DB58F778DBD2EB5983028F4933088F47C
:102CC000992359F00CC09D3018F4993070F40BC062
:102CD0009D3019F19E3069F524C028832AC02083D5
:102CE00028C0218326C02A8724C030E040E050E07D
:102CF000062E04C0220F331F441F551F0A94D2F71B
:102D00008B859C85AD85BE85822B932BA42BB52B03
:102D10008B879C87AD87BE870CC02295207F2F872D
:102D200008C0922F92959F708F85892B8F872F7067
:102D3000288B3196685070408FEF603D780709F01E
:102D4000B1CF89E040E050E060E070E00E94C01543
:102D5000882311F02A9A8EC09FEF9EBD0DB407FE06
:102D6000FDCF8DB58F778DBD8EB58E3FB1F7F0E07D
:102D700070E020E030E040E050E060E01FEFE1E094
:102D80001EBD0DB407FEFDCF8DB58F778DBD8EB501
:102D90006E3079F490E086FDED8B85FDEE8B84FD41
:102DA000EF8B8C7090709595879595958795888F0A
:102DB0005AC06730F9F0683030F4653061F0663041
:102DC00009F051C00BC06930A1F1693010F16A30CF
:102DD00009F049C032C0F82FFF7045C090E0A0E074
:102DE000B0E083709070A070B0702227382F492F08
:102DF0005A2F39C090E0A0E0B0E0282B392B4A2BA5
:102E00005B2BA2E0220F331F441F551FAA95D1F759
:102E10002AC0829586958695837090E0A0E0B0E008
:102E2000282B392B4A2B5B2B2F5F3F4F4F4F5F4F88
:102E30001AC0782F7370770F16C0881F8827881FD5
:102E4000782B8F2F90E00296870F911D69017A01F0
:102E500004C0CC0CDD1CEE1CFF1C8A95D2F7C98A7D
:102E6000DA8AEB8AFC8A6F5F623109F089CF2A9A8D
:102E700081E001C080E0DF91CF911F910F91FF9021
:102E8000EF90DF90CF9008952F923F924F925F92F4
:102E90006F927F928F929F92AF92BF92CF92DF926A
:102EA000EF92FF920F931F93CF93DF934B015C013F
:102EB0002A0139013599A3C0ABC0E401D170CE011C
:102EC000A0E0B0E085017401E81AF90A0A0B1B0BB7
:102ED000C12CB2E0DB2ECC1ADD0A6C147D0408F4A0
:102EE00063018091D2039091D303A091D403B09158
:102EF000D503E816F9060A071B07F9F00E941E1809
:102F0000882309F485C0209729F480E0C81682E060
:102F1000D80658F4C801B70142ED51E020E032E094
:102F20000E943818882309F473C0E092D203F0920B
:102F3000D3030093D4031093D50382ED481681E0A8
:102F4000580671F09E012E523E4FC901B201A601F2
:102F50000E94091C1092D6036C147D0409F45AC017
:102F60002A9888E1B801A7010E94C015882311F0B2
:102F70002A9A4EC08EEF8EBD0DB407FEFDCF8DB5E3
:102F80008F778DBDE2EDF1E081918EBD0DB407FE2E
:102F9000FDCF8DB58F778DBD83E0E23DF807A1F7BA
:102FA0003EBC0DB407FEFDCF8DB58F778DBD3EBC09
:102FB0000DB407FEFDCF8DB58F778DBD3EBC0DB432
:102FC00007FEFDCF8DB58F778DBD8EB58F3FB1F7E5
:102FD0008EBD0DB407FEFDCF8DB58F778DBD8EB53F
:102FE0002A9A4C0C5D1CC601A0E0B0E0880E991E28
:102FF000AA1EBB1E6C187D082092D60304C0332481
:103000003A94222423946114710409F056CF02C02B
:1030100080E001C081E0DF91CF911F910F91FF907F
:10302000EF90DF90CF90BF90AF909F908F907F9068
:103030006F905F904F903F902F9008958091D603AE
:10304000882311F081E008956091D2037091D30339
:103050008091D4039091D50342ED51E020E032E01D
:103060000E944417882319F081E08093D6030895C5
:103070003F924F925F926F927F928F929F92AF9208
:10308000BF92CF92DF92EF92FF920F931F93CF9355
:10309000DF933B014C016A01290133243A948FC02C
:1030A0001FEFA12E11E0B12EA620B720C501A0E090
:1030B000B0E084017301E81AF90A0A0B1B0BC0E0A7
:1030C000D2E0CA19DB094C165D0608F4E2018091D2
:1030D000D2039091D303A091D403B091D503E81605
:1030E000F9060A071B0709F457C00E941E18882317
:1030F00009F46AC02A9881E1B801A7010E94C015AD
:10310000882319F02A9A80E05FC03EBC0DB407FE08
:10311000FDCF8DB58F778DBD8EB58E3FB1F7E2EDCA
:10312000F1E03EBC0DB407FEFDCF8DB58F778DBDB0
:103130008EB5808383E0E13DF80711F03196F1CF41
:10314000E092D203F092D3030093D4031093D503FB
:1031500095012E523E4FC601B901AE010E94091CD5
:103160003EBC0DB407FEFDCF8DB58F778DBD8EB5FE
:103170003EBC0DB407FEFDCF8DB58F778DBD8EB5EE
:103180002A9A3EBC0DB407FEFDCFCC0EDD1E8DB5D8
:103190008F778DBD8EB50AC095012E523E4FC60168
:1031A000B901AE010E94091CCC0EDD1E4C1A5D0A4D
:1031B000CE01A0E0B0E0680E791E8A1E9B1E41146D
:1031C000510409F06DCF81E0DF91CF911F910F91F4
:1031D000FF90EF90DF90CF90BF90AF909F908F9037
:1031E0007F906F905F904F903F9008952F923F9205
:1031F0004F925F926F927F928F929F92AF92BF9207
:10320000CF92DF92EF92FF920F931F93DF93CF93B2
:1032100000D000D0CDB7DEB74B015C013A013C8352
:103220002B832701DA82C98241155105A9F12115A5
:10323000310591F10217130778F1E114F10461F1FE
:1032400019013094219431083394021B130B690146
:10325000EE24FF24C501B401A3012B813C810E940F
:1032600038188823C9F0C301B501A40129813A8126
:10327000F2010995882391F0020D131D8B819C8129
:10328000800F911F2B813C818217930738F08C0CA3
:103290009D1CAE1CBF1CDECF80E001C081E00F9002
:1032A0000F900F900F90CF91DF911F910F91FF9092
:1032B000EF90DF90CF90BF90AF909F908F907F90D6
:1032C0006F905F904F903F902F9008950F931F93B2
:1032D000CF93DF933C983D98239A259A229A24987D
:1032E0002A9A83E58CBD8DB58E7F8DBD1092D70354
:1032F00034991FC090E02FEF2EBD0DB407FEFDCF17
:103300008DB58F778DBD8EB59F5F9A30A9F72A98BE
:10331000C0E0D0E080E040E050E060E070E00E947B
:10332000C015182F813049F081E0CF3FD80719F43C
:103330002A9A80E063C02196EDCF87E340E050E019
:1033400060E070E00E94C01589E240E050E060E07B
:1033500070E00E94C01582FD02C01093D7038091D7
:10336000D703082F10E003701070C0E0D0E0011503
:10337000110549F087E340E050E060E070E00E9412
:10338000C01589E201C081E040E050E060E070E0FB
:103390000E94C01580FF06C08FE7CF3FD80741F2DB
:1033A0002196E5CF80E140E052E060E070E00E94CD
:1033B000C015882309F0BCCF2A9A8CB58C7F8CBDB0
:1033C0008DB581608DBD8FEF9FEFAFEFBFEF809325
:1033D000D2039093D303A093D403B093D50381E099
:1033E0008093D60360E070E080E090E042ED51E031
:1033F00020E032E00E943818811181E0DF91CF9106
:103400001F910F9108954F925F926F927F928F92CA
:103410009F92AF92BF92CF92DF92EF92FF920F9363
:103420001F93CF93DF935B016C014A01E9013801DF
:1034300027014115510571F10115110559F1FF24BD
:103440002115310511F5FF24F3941FC0C401B60105
:10345000A5019201F30109958C010097E9F0FF2085
:1034600019F4C817D907B0F0C601B501A401980135
:103470000E944417882371F0C801A0E0B0E0A80EB4
:10348000B91ECA1EDB1EC01BD10BFF20F9F6209708
:10349000E9F602C080E001C081E0DF91CF911F9189
:1034A0000F91FF90EF90DF90CF90BF90AF909F90E3
:1034B0008F907F906F905F904F9008951092C5000D
:1034C00087E68093C40086E08093C20088E98093F9
:1034D000C10008951F93182F8A3019F48DE00E94BF
:1034E0006A1A8091C00085FFFCCF1093C6001F911F
:1034F00008951F93182F82958F708A3010F4805D85
:1035000001C0895A0E946A1A812F90E08F709070D2
:10351000212F2F700A971CF4822F805D02C0822F0A
:10352000895A0E946A1A1F9108951F93182F892F94
:103530000E94791A812F0E94791A1F910895EF92A3
:10354000FF920F931F937B018C01C801AA27BB2711
:103550000E94951AC7010E94951A1F910F91FF9022
:10356000EF900895CF92DF92FF920F931F93CF9326
:10357000DF936C01C0E1D7E240E000E010E0C6015B
:10358000BE010E94A91BF62E662329F4442319F4D8
:10359000C130D10529F48F2D805D0E946A1A41E067
:1035A000CE016AE070E00E94A91B0F5F1F4F05303B
:1035B000110571F08F2D90E09C012C9FC0012D9F73
:1035C000900D3C9F900D1124C81AD90AEB01D7CF5A
:1035D000DF91CF911F910F91FF90DF90CF900895D1
:1035E0004F925F926F927F928F929F92AF92BF9213
:1035F000CF92DF92EF92FF920F931F93CF93DF93BF
:103600005B016C01E12C9AECF92E9AE9092F9BE3FE
:10361000192F4424C0E0D0E0C601B501A8019701EC
:103620000E94D01B922E222341F4442031F481E0E9
:10363000E816F1040105110531F4892D805D0E9421
:103640006A1A44244394C801B7012AE030E040E0FC
:1036500050E00E94D01B822E732E642E552E219690
:10366000CA30D105A9F0692D70E080E090E0A80192
:1036700097010E948A1BA61AB70AC80AD90A282DE0
:10368000372D462D552DC901DA017C018D01C4CF9E
:10369000DF91CF911F910F91FF90EF90DF90CF902E
:1036A000BF90AF909F908F907F906F905F904F9062
:1036B0000895CF93DF93EC0103C021960E946A1A0C
:1036C00088818823D1F7DF91CF910895CF93DF933D
:1036D000EC01FE0121968491882319F00E946A1A58
:1036E000F8CFDF91CF9108959FB7789407C083B743
:1036F000816083BF889583B78E7F83BF8091C00030
:1037000087FFF5CF9FBF8091C6008D3009F48AE016
:1037100008951895629FD001739FF001829FE00D7C
:10372000F11D649FE00DF11D929FF00D839FF00D40
:10373000749FF00D659FF00D9927729FB00DE11DEC
:10374000F91F639FB00DE11DF91FBD01CF011124C9
:103750000895AA1BBB1B51E107C0AA1FBB1FA617D8
:10376000B70710F0A61BB70B881F991F5A95A9F72A
:1037700080959095BC01CD01089597FB092E0726F1
:103780000AD077FD04D0E5DF06D000201AF470954A
:1037900061957F4F0895F6F7909581959F4F089515
:1037A000A1E21A2EAA1BBB1BFD010DC0AA1FBB1F45
:1037B000EE1FFF1FA217B307E407F50720F0A21BB7
:1037C000B30BE40BF50B661F771F881F991F1A9424
:1037D00069F760957095809590959B01AC01BD014E
:1037E000CF010895FB01DC018D9105908019011036
:1037F000D9F3990B0895FB01DC014150504030F0A2
:103800008D910590801919F40020B9F7881B990B48
:103810000895FB01DC0102C001900D92415050401F
:10382000D8F70895DC0101C06D9341505040E0F796
:103830000895FC018191861721F08823D9F79927F3
:1038400008953197CF010895FB01DC018D9101901E
:1038500080190110D9F3990B0895FB01DC01415047
:10386000504030F08D910190801919F40020B9F783
:10387000881B990B0895FB01DC014150504048F032
:1038800001900D920020C9F701C01D924150504097
:10389000E0F70895FC0181E090E00190061609F43C
:0E38A000CF010020D1F701970895F894FFCFD3
:1038AE0001030507090E10121416181C1E2F000016
:00000001FF
