:100000000C9473000C949D000C949D000C949D0026
:100010000C949D000C949D000C949D000C949D00EC
:100020000C949D000C949D000C949D000C949D00DC
:100030000C949D000C949D000C949D000C949D00CC
:100040000C949D000C949D000C949D000C949D00BC
:100050000C949D000C949D000C949D000C94260122
:100060000C949D000C944F020C949D000C949D00E8
:100070000C949D000C949D000C949D000C949D008C
:100080000C949D000C949D000C949D000C949D007C
:100090000C947B020C949D000C949D000C949D008C
:1000A0000C949D000C949D000C949D000C949D005C
:1000B0000C949D000C949D000C949D000C949D004C
:1000C0000C949D000C949D000C949D000C94A70230
:1000D0000C949D000C949D000C94D3020C949D00F4
:1000E0000C949D006D0411241FBECFEFD1E2DEBF42
:1000F000CDBF12E0A0E0B2E0E6E2FEE000E00BBF20
:1001000002C007900D92A639B107D9F714E0A6E90D
:10011000B2E001C01D92AB3FB107E1F710E0C6EEBF
:10012000D0E004C02297FE010E940D07C43ED10713
:10013000C9F70E943D050C9411070C9400006AEF6A
:1001400070E080E090E00E94A0010BC088EE94E097
:100150000E942604BC018FEA94E040E050E00E9437
:10016000530688EE94E00E94F803892B79F70895EE
:1001700088EE94E060E072E00E947B050E949F00A0
:1001800068E873E180E090E00E94A0010895CF92BA
:10019000DF92EF92FF920F931F930FEA14E0C801D2
:1001A00040E855E260E070E00E94FF0298EEE92E20
:1001B00094E0F92EC70140E855E260E070E00E944B
:1001C000FF028BE0C82E82E0D82EC801B6010E9443
:1001D0007B05C801B6010E947B05C8016EE072E094
:1001E0000E947B05C7016FE172E00E947B050E94BF
:1001F0009F00C7016BE272E00E947B050E949F0096
:10020000C80164E372E00E947B05C70164E472E008
:100210000E947B050E949F00C70169E572E00E9471
:100220007B05C70169E772E00E947D060E949F007E
:10023000C701609182020E945A040E949F001F9190
:100240000F91FF90EF90DF90CF9008951F920F9243
:100250000FB60F9211242F933F934F935F936F9399
:100260007F938F939F93AF93BF9320919A02309186
:100270009B0240919C0250919D0270919E02DA0176
:10028000C9014096A11DB11D672F605D6D3730F02B
:100290006D57DA01C9014196A11DB11D60939E02FF
:1002A00080939A0290939B02A0939C02B0939D022C
:1002B0008091960290919702A0919802B091990234
:1002C0000196A11DB11D8093960290939702A09371
:1002D0009802B0939902BF91AF919F918F917F91B6
:1002E0006F915F914F913F912F910F900FBE0F90A3
:1002F0001F9018959FB7F89420919602309197021D
:10030000409198025091990286B5A89B06C08F3FF4
:1003100021F02F5F3F4F4F4F5F4F9FBF542F432F11
:10032000322F2227280F311D411D511D86E0220F3B
:10033000331F441F551F8A95D1F7B901CA0108958B
:10034000EF92FF920F931F93CF93DF937B018C016A
:100350000E947A01EB010EC00E947A016C1B7D0B9A
:10036000685E7340C8F30894E108F10801091109B7
:10037000C851DC4FE114F1040105110569F7DF9163
:10038000CF911F910F91FF90EF900895789484B5CD
:10039000826084BD84B5816084BD85B5826085BD81
:1003A00085B5816085BDEEE6F0E080818160808367
:1003B000E1E8F0E01082808182608083808181604A
:1003C0008083E0E8F0E0808181608083E1EBF0E011
:1003D000808184608083E0EBF0E0808181608083B5
:1003E000E1E9F0E0808182608083808181608083A8
:1003F000E1EAF0E080818260808380818160808397
:10040000E1E2F1E08081826080838081816080838D
:10041000E0E9F0E0808181608083E0EAF0E08081C3
:1004200081608083E0E2F1E0808181608083EAE79F
:10043000F0E080818460808380818260808380811D
:10044000816080838081806880831092C1000895DC
:100450000F931F93CF93DF93482FFB018B0100581D
:100460001F4FD801CD91DC91CE01019660E870E07C
:100470000E94A7069C01EE57FF4F80819181E258B0
:10048000F0402817390731F0CE0FDF1F4883F801FD
:1004900031832083DF91CF911F910F9108951F9297
:1004A0000F920FB60F920BB60F9211242F933F931A
:1004B0004F935F936F937F938F939F93AF93BF936C
:1004C000EF93FF938091C6006FE972E00E942802CB
:1004D000FF91EF91BF91AF919F918F917F916F911C
:1004E0005F914F913F912F910F900BBE0F900FBED8
:1004F0000F901F9018951F920F920FB60F920BB688
:100500000F9211242F933F934F935F936F937F9399
:100510008F939F93AF93BF93EF93FF938091CE0000
:1005200063E273E00E942802FF91EF91BF91AF91C7
:100530009F918F917F916F915F914F913F912F91FB
:100540000F900BBE0F900FBE0F901F9018951F922B
:100550000F920FB60F920BB60F9211242F933F9369
:100560004F935F936F937F938F939F93AF93BF93BB
:10057000EF93FF938091D60067EA73E00E94280210
:10058000FF91EF91BF91AF919F918F917F916F916B
:100590005F914F913F912F910F900BBE0F900FBE27
:1005A0000F901F9018951F920F920FB60F920BB6D7
:1005B0000F9211242F933F934F935F936F937F93E9
:1005C0008F939F93AF93BF93EF93FF9380913601E7
:1005D0006BE274E00E942802FF91EF91BF91AF910E
:1005E0009F918F917F916F915F914F913F912F914B
:1005F0000F900BBE0F900FBE0F901F9018955F923B
:100600006F927F928F929F92AF92BF92CF92DF9222
:10061000EF92FF920F931F93CF93DF93EC013A0178
:100620004B01453284EF580780E0680780E0780787
:100630000CF07FC068E478EE81E090E0A4019301C3
:100640000E94DC062150304040405040CA01B901B0
:1006500022E030E040E050E00E94DC0659016A01EF
:10066000A6019501209530954095509594E0220F74
:10067000331F441F551F9A95D1F760E472E48FE051
:1006800090E00E94DC06CA01B9012FEF30E040E0A3
:1006900050E00E948806A40193010E94DC06C90173
:1006A00081509F4F181619061CF4522E5A9403C0FD
:1006B00055245394521A60E970ED83E090E0A40150
:1006C00093010E94DC062150304040405040CA0156
:1006D000B90122E030E040E050E00E94DC062095C5
:1006E00030954095509583E0220F331F441F551FCE
:1006F0008A95D1F760E472E48FE090E00E94DC0616
:10070000CA01B9012FEF30E040E050E00E948806B6
:10071000A40193010E94DC06C90181509F4F181665
:1007200019061CF4822F815002C081E0821B8515BE
:1007300000F5E885F98581E090E00A8802C0880F1D
:10074000991F0A94E2F7808360E970ED83E090E0FE
:10075000A40193010E94DC062150304040405040EB
:10076000CA01B90122E030E040E050E00E94DC061E
:1007700004C0E885F98510829501EC81FD81308304
:10078000EE81FF812083EA85FB85208141E050E0F6
:10079000CA010E8402C0880F991F0A94E2F7282B21
:1007A0002083EA85FB852081CA010F8402C0880F5F
:1007B000991F0A94E2F7282B2083EA85FB85808124
:1007C000088802C0440F551F0A94E2F7842B8083E7
:1007D000DF91CF911F910F91FF90EF90DF90CF901D
:1007E000BF90AF909F908F907F906F905F90089593
:1007F000DC011296ED91FC911397E058FF4F819127
:10080000919180589F4F20813181821B930B60E82A
:1008100070E00E94A7060895DC011296ED91FC910C
:100820001397EE57FF4F2081318192918291E058CA
:10083000F0408217930719F42FEF3FEF05C0E20F46
:10084000F31F8081282F30E0C9010895CF93DF93F3
:10085000DC011296ED91FC911397EF01CE57DF4F1B
:1008600048815981E058FF4F80819181E058F040E4
:100870008417950719F42FEF3FEF0CC0E40FF51F15
:100880002081CA01019660E870E00E94A706998362
:10089000888330E0C901DF91CF910895DC01129681
:1008A000ED91FC911397EE57FF4F808191819293C8
:1008B00082930895FC01A085B18521898C9190E0F7
:1008C000022E02C0959587950A94E2F780FFF6CF35
:1008D0000484F585E02D6083089527E832E03093A5
:1008E000B0042093AF048FE992E09093B204809318
:1008F000B10485EC90E09093B4048093B30484EC4D
:1009000090E09093B6048093B50480EC90E09093CF
:10091000B8048093B70481EC90E09093BA0480937C
:10092000B90486EC90E09093BC048093BB04E4E0AF
:10093000E093BD0473E07093BE0467E06093BF046E
:1009400055E05093C00441E04093C1043093C30488
:100950002093C20483E293E09093C5048093C4047F
:100960008DEC90E09093C7048093C6048CEC90E0EB
:100970009093C9048093C80488EC90E09093CB04D2
:100980008093CA0489EC90E09093CD048093CC04CA
:100990008EEC90E09093CF048093CE04E093D0044B
:1009A0007093D1046093D2045093D3044093D40441
:1009B0003093D6042093D50487EA93E09093D8042B
:1009C0008093D70485ED90E09093DA048093D90466
:1009D00084ED90E09093DC048093DB0480ED90E064
:1009E0009093DE048093DD0481ED90E09093E00429
:1009F0008093DF0486ED90E09093E2048093E1041D
:100A0000E093E3047093E4046093E5045093E604F8
:100A10004093E7043093E9042093E8048BE294E0E8
:100A20009093EB048093EA0485E391E09093ED04C6
:100A30008093EC0484E391E09093EF048093EE04C0
:100A400080E391E09093F1048093F00481E391E0DE
:100A50009093F3048093F20486E391E09093F5047D
:100A60008093F404E093F6047093F7046093F80421
:100A70005093F9044093FA0408950E94C6010E941D
:100A8000C7000E94B800FDCF0F931F93CF93DF9351
:100A90008C01EB0109C02196D801ED91FC910190E8
:100AA000F081E02DC801099568816623A1F7DF91E7
:100AB000CF911F910F910895EF92FF920F931F9383
:100AC000CF93DF938C017B01EA010CC0D7016D91BC
:100AD0007D01D801ED91FC910190F081E02DC801DC
:100AE00009952197209791F7DF91CF911F910F9151
:100AF000FF90EF900895DC01ED91FC910280F3816D
:100B0000E02D099508952F923F924F925F926F9238
:100B10007F928F929F92AF92BF92CF92DF92EF928D
:100B2000FF920F931F93DF93CF93CDB7DEB7A097BC
:100B30000FB6F894DEBF0FBECDBF1C016A017B016A
:100B4000411551056105710549F440E350E060E04D
:100B500070E020E030E00E941D0656C088249924F1
:100B60005401422E55246624772401E010E00C0F36
:100B70001D1F080D191DC701B601A30192010E9496
:100B8000BA06F80160830894811C911CA11CB11C59
:100B9000C701B601A30192010E94BA06C901DA0198
:100BA0006C017D01C114D104E104F104F1F681E08E
:100BB000E82EF12CEC0EFD1EE80CF91C3E01089409
:100BC000611C711CD501C4010197A109B1096C0117
:100BD000C818D90816C0F601EE0DFF1D40814A3035
:100BE00010F4405D01C0495C552747FD5095652FC5
:100BF000752FC10120E030E00E941D060894E10835
:100C0000F1086E147F0439F7A0960FB6F894DEBF92
:100C10000FBECDBFCF91DF911F910F91FF90EF904D
:100C2000DF90CF90BF90AF909F908F907F906F900C
:100C30005F904F903F902F900895EF92FF920F9307
:100C40001F93CF93DF93EC017A018B0121153105BE
:100C500041F4E881F9810190F081E02D642F09953C
:100C60001BC02A303105B1F477FF10C04DE250E0CF
:100C700060E070E020E030E00E941D0610950095D5
:100C8000F094E094E11CF11C011D111DCE01B8018E
:100C9000A7012AE00E948305DF91CF911F910F9158
:100CA000FF90EF900895EF92FF920F931F937B01B7
:100CB0009A010027F7FC0095102FB801A7010E94A8
:100CC0001D061F910F91FF90EF9008950F931F93B2
:100CD0008C014DE050E060E070E020E030E00E94E8
:100CE0001D06C8014AE050E060E070E020E030E01E
:100CF0000E941D061F910F9108950F931F938C0161
:100D00000E947B05C8010E9466061F910F910895FD
:100D1000629FD001739FF001829FE00DF11D649FDF
:100D2000E00DF11D929FF00D839FF00D749FF00D6B
:100D3000659FF00D9927729FB00DE11DF91F639F0C
:100D4000B00DE11DF91FBD01CF011124089597FBDE
:100D5000092E07260AD077FD04D049D006D00020FE
:100D60001AF4709561957F4F0895F6F790958195E7
:100D70009F4F0895A1E21A2EAA1BBB1BFD010DC0B7
:100D8000AA1FBB1FEE1FFF1FA217B307E407F5073B
:100D900020F0A21BB30BE40BF50B661F771F881F17
:100DA000991F1A9469F760957095809590959B01AD
:100DB000AC01BD01CF01089597FB092E05260ED089
:100DC00057FD04D0D7DF0AD0001C38F45095409569
:100DD000309521953F4F4F4F5F4F0895F6F790950F
:100DE0008095709561957F4F8F4F9F4F0895AA1BF7
:100DF000BB1B51E107C0AA1FBB1FA617B70710F006
:100E0000A61BB70B881F991F5A95A9F78095909537
:100E1000BC01CD010895EE0FFF1F0590F491E02D68
:060E20000994F894FFCFD5
:100E260041542B43434C4B3F0D0A000D0A00746599
:100E36006C6475696E6F2073746172740D0A00417B
:100E4600542B434D47463D310D0A0041542B435325
:100E5600510D0A006D657373616765207374617265
:100E6600740D0A0041542B434D47533D38333233FA
:100E76003737363836310D0A006D6573736167652D
:100E86002066726F6D20636F6C756D626961207488
:100E9600656C6475696E6F200030313A35343A31CD
:100EA60035001A000000005A0444055C05F80326C4
:060EB600044E040C0400D0
:00000001FF
